:090FD10050616B696E673A200063
:100DE200026C0000016A00016900016800016B00E9
:100800007522017523017524017525017526017571
:100810002701752801752901E4F52AF52BF52CF53A
:100820002DF52EF52F753020120FDA7B47E4FDAF42
:1008300030120FC6120FF0120FF3120FED7534FDC8
:100840007B1C7D507F80120F377F01120FE8120D45
:1008500060120F8B850F22851024851126851228A2
:10086000E522C39523500CE52C60047F0080027FB5
:10087000018F2CE524C39525500CE52D60047F00E5
:1008800080027F018F2DE526C39527500CE52E6051
:10089000047F0080027F018F2EE528C39529500C2C
:1008A000E52F60047F0080027F018F2FE52C60031D
:1008B000E4F52DE52D6003E4F52CE52B6401452AD4
:1008C0007002F52DE52B6402452A7002F52CE56BCC
:1008D000606FE52D7007F52A752B028064E4F52A18
:1008E000F52BF56BE52E600BE4F52E056DE56D70CF
:1008F00002056CE52F600BE4F52FE56D156D7002B8
:10090000156CE4F52EF52F120F8B7BFF7A0F79D142
:10091000120EF3120F16AE6CAF6D7C007D0A120A38
:10092000C4EF2430FF120E8AAE6CAF6D7C007D0ADE
:10093000120AC4ED2430FF120E8AAF6DAE6C120B9A
:10094000B7E52E6014E56B7010C3E56D940FE56C90
:1009500094005008756A018003E4F56AE52F60147D
:10096000E56B7010D3E56D9400E56C94004008755C
:1009700069018003E4F569E56A6004E5696008E5FA
:10098000696033E56A702FE52C7007F52A752B0135
:100990008050E4F52AF52B756801E50C6044756B11
:1009A00001E4F50CF568E56A6003E4F56AE5696061
:1009B00031E4F569802CE56B7028F568F50DF50ECE
:1009C000E52B452A7004E52C6012E52D7007F52A09
:1009D000752B02800DE4F52AF52B8006752D01E4B8
:1009E000F52C852223852425852627852829E52B96
:1009F000452A7006C2A0C2A1801AE52B6401452ACF
:100A00007006D2A0C2A1800CE52B6402452A7004B6
:100A1000C2A0D2A1E5686004D2A28002C2A2E52CE5
:100A20006004D2A48002C2A4E52D6004D2A6800294
:100A3000C2A6E52E6004D2A38002C2A3E52F600502
:0A0A4000D2A7020854C2A70208540E
:070FDA007580FFE4F5A02281
:100DF200010C00020D00000108010117010113009E
:100E0200010F010109010118010114000110010182
:100E12000A01011901011500011101010B01011A59
:070E2200010116000112019D
:03001B00020B19BC
:100B1900C0E0C0D075D000C006C007E568601A05FE
:100B29000EE50E7002050DFFAE0DBE610CBFA809E2
:100B3900750C01750D00750E00A280E433F508B53A
:100B4900170C0513E513B4050885080F8003751301
:100B590000850817A281E433F509B5180C0514E5D9
:100B690014B405088509108003751400850918A2B5
:100B790082E433F50AB5190C0515E515B4050885A0
:100B89000A118003751500850A19A283E433F50B50
:100B9900B51A0C0516E516B40508850B1280037500
:0E0BA9001600850B1AD007D006D0D0D0E0324F
:0B0FC6008B8D8D8B53892FEF42892209
:030FED00D28E227F
:030FF000D2AB225F
:030FF300D2AF2258
:060E29000152000153001C
:100F370053873FEF54C0428753980FED54F04298C0
:0C0F4700539BE0EB541F429B85349A2220
:050FE800EF1392AC22A2
:03002300020C4686
:100C4600C0E0C0F0C083C082C0D075D000C000C074
:100C560001C002C003C004C005C006C00730992801
:100C6600C299E553704DAB4F0551E55170020550E1
:100C7600F9AA50120A4A7003755301AB4FAA50A93C
:080C860051120A4AF599802B76
:100C8E00C29885992174542552F8A621E552240163
:100C9E00FFE433FE7C007D14120AC48D52E52170F0
:0B0CAE000A74542552F87600755200BD
:100CB900D007D006D005D004D003D002D001D0008F
:0B0CC900D0D0D082D083D0F0D0E03239
:100FB400E4F553120E368B4F8A508951120A4AF5C2
:020FC400992270
:060E2F00011B01011C0083
:080E36008B378A3889398D3AA7
:100E3E00E4FFFEEEC3953A502AAB37AA38A9398E95
:100E4E0082758300120A63FD7010EE04FCC39FFBD3
:100E5E00743B2FF8A603AF048006743C2EF8A6054B
:100E6E000E80D0E53A04C39FFE743B2FF8A606749D
:0B0E7E003C253AF8E4F6FB7A00793BD3
:010E89002246
:070FE1007590E075B0F322EA
:100F5300E58954F04401F589E4FF758CEEE4F58AE4
:0B0F6300D28C308DFDC28D0FBFC8EF97
:010F6E002260
:060FA000D292C293C2B21E
:0E0FA600758CFF758AD2D28C308DFDC28D22E3
:0E0F6F00C2B3D2B2C290C291C292D293C2B2A9
:0E0F7D00758CF8758ACDD28C308DFDC28D2218
:100D6000120FE1120F53C2B3D2B2C290C291120F4E
:100D7000A0C2B3D2B2C290C291D292C293C2B20008
:100D8000C2B3D2B2D290C291C292120FA2C2B3D257
:100D9000B2C290C291C292C293C2B200C2B3D2B2E6
:100DA000D290D291D292D293C2B2120FA6C2B3D233
:100DB000B2C290C291C292C293C2B200120F6F121D
:100DC0000F7DC2B3D2B2C290C291C292C293C2B2DC
:100DD00000C2B3D2B2C290D291120FA0120F7DD234
:020DE00094225B
:100F8B00C2B3D2B2C290C291C292C293C2B2001289
:050F9B000F6F020F7D45
:050ECF009290AF041D2C
:100ED400A8057401088002C333D8FC5FFFAE05A8DF
:0E0EE40006088002C313D8FC24FF9200A2006F
:010EF20022DD
:100E8A00AC07D2B3D2B27D07120ED4120ECF929112
:100E9A00AF041D120ED49292AF041D120ED4929377
:100EAA00C2B200D2B2AF041D120ED4120ECF92916A
:100EBA00AF041D120ED49292AF041D120ED4929357
:050ECA00C2B2020FA6F8
:060EF3008B318A328933C5
:100EF900E4F534AB31AA32A9338534827583001203
:0C0F09000A63FF6007120E8A053480E7BF
:010F150022B9
:100F1600C2B3D2B2D290D291C292C293C2B200D21E
:100F2600B2C290C291C292C293C2B2120F7D020F98
:010F36007D3D
:040BB7008E318F32BA
:100BBB00E4F533F534F535F536C3E532940AE53112
:100BCB0094005014EF2430AB6EAA6FA970120A90E8
:100BDB007533007534018037AE31AF327C007D0A3E
:100BEB00120AC4EF2430AB6EAA6FA970120A90AE32
:100BFB0031AF327C007D0A120AC4ED2430AB6EAAF1
:100C0B006FA970900001120AA2753300753402AB04
:100C1B006EAA6FA970AD34120E368B718A728973FE
:100C2B00E5342402F536E43533F535AD36120FB421
:0B0C3B007B007A00791B7D01020FB4E2
:03000000020CD41B
:0C0CD400787FE4F6D8FD758173020D1BDB
:100A4A00BB010689828A83E0225002E722BBFE02AA
:090A5A00E32289828A83E49322DD
:100A6300BB010CE58229F582E5833AF583E0225048
:100A730006E92582F8E622BBFE06E92582F8E22292
:0D0A8300E58229F582E5833AF583E49322AC
:100A9000BB010689828A83F0225002F722BBFE0145
:020AA000F3223F
:100AA200F8BB010DE58229F582E5833AF583E8F08A
:100AB200225006E92582C8F622BBFE05E92582C836
:020AC200F2221E
:100AC400BC000BBE0029EF8DF084FFADF022E4CC16
:100AD400F875F008EF2FFFEE33FEEC33FCEE9DECDF
:100AE400984005FCEE9DFE0FD5F0E9E4CEFD22ED25
:100AF400F8F5F0EE8420D21CFEADF075F008EF2F6F
:100B0400FFED33FD4007985006D5F0F222C398FD5F
:050B14000FD5F0EA22FC
:100CE000020800E493A3F8E493A34003F68001F222
:100CF00008DFF48029E493A3F85407240CC8C33315
:100D0000C4540F4420C8834004F456800146F6DFE3
:100D1000E4800B0102040810204080900DE2E47E84
:100D2000019360BCA3FF543F30E509541FFEE493D8
:100D3000A360010ECF54C025E060A840B8E493A39F
:100D4000FAE493A3F8E493A3C8C582C8CAC583CACA
:100D5000F0A3C8C582C8CAC583CADFE9DEE780BE82
:010E350000BC
:00000001FF
